:400000000080002011000000990900009909000008B5044B1A6803F53F5302331A6000F0C3FC00BFFA46004010B5054C237833B9044B13B10448AFF300800123237010BD74
:400040004081FF1F00000000F01A0000084B10B51BB108490848AFF300800848036803B910BD074B002BFBD0BDE81040184700BF000000004481FF1FF01A0000C880FF1FFE
:400080000000000010B501F03DFA01F053FAC0F57F43FF330F4880FB03201844DB17C3EB601001F01BFC04460B4901F0B9FC28B101200A4B187000F0A3FE10BD06492046D5
:4000C00001F0CCFC20B10020044B187000F098FE10BD00BF09CB3D8D000070415C81FF1F10B501F0B7FA01F0CDFAC0F57F43FF330D4880FB03201844DB17C3EB601001F00B
:40010000EDFB0446094901F08BFC18B10122084B1A7010BD0549204601F0A0FC10B10022034B1A7010BD00BF09CB3D8D0000A0415C81FF1F08B501F03DF900F011FF002027
:4001400000F0A4FF00F01AFF01F06AFA01F04EF9024B588001225A6008BD00BF5C81FF1F0C4BB3F90A20B3F90C30D11A092901DC9A4205D1074B50221A6164225A617047DD
:400180009B1A092B04DD034B64221A6150225A61704700BF5C81FF1F10B54238172800F28180DFE800F01C597F7F0C7F7F7F7F7F3F7F7F7F7F7F4C2C7F7F7F7F6673FFF769
:4001C000CFFF394C208A00F0EDFC002000F0F0FCA08A00F063FD002000F066FD10BDFFF7BFFF002000F0DEFC2F4C208A00F0E0FC002000F053FDA08A00F056FD10BD00202A
:4002000000F0D0FC002000F0D3FC002000F046FD002000F049FD002000F028FC002000F06DFC10BD002000F0BDFC002000F0C0FC5A2000F033FD002000F036FD10BD5A2047
:4002400000F0B0FC002000F0B3FC002000F026FD002000F029FD10BD322000F0A3FC002000F0A6FC322000F019FD002000F01CFD10BD002000F096FC5A2000F099FC00204B
:4002800000F00CFD002000F00FFD10BD002000F089FC002000F08CFC002000F0FFFC5A2000F002FD10BD00BF5C81FF1F08B5914201DD824203DB4620FFF76EFF08BD532023
:4002C000FFF76AFF002000F0D1FB002000F016FC024A138B0133138308BD00BF5C81FF1F08B5884203DC4C20FFF756FF08BD5320FFF752FF002000F0B9FB002000F0FEFB05
:40030000034B00225A811A8B01321A8308BD00BF5C81FF1F08B5884203DC5220FFF73CFF08BD5320FFF738FF002000F09FFB002000F0E4FB034B00229A811A8B01321A8377
:4003400008BD00BF5C81FF1F08B500F015FD30B900F00AFD18B94220FFF71EFF08BD00F00BFD38B900F000FD012803D15820FFF713FF08BD00F000FD012806D100F0F4FC6F
:4003800018B95920FFF708FF08BD5320FFF704FF002000F06BFB002000F0B0FB034B00225A819A811A8B01321A8308BD5C81FF1F08B503281ED8DFE800F002091017002012
:4003C00000F04CFE002000F055FE13E0002000F045FE012000F04EFE0CE0012000F03EFE002000F03BFE05E0012000F037FE012000F040FE002008BD08B5012000F046FECA
:40040000012000F00DFE012000F064FF002000F007FE0022044B5A6001F044F8034801F0F1F800F0EFFD08BD5C81FF1F3501000008B5FFF7BDFF012000F0F8FD002000F043
:4004400001FEFFF7D9FF034B5B68002BFBD0014B588808BD5C81FF1F08B50A4BDB69022B07D0032B09D0012B0AD1002000F01AFE08BD002000F022FE08BD002000F02AFE3A
:4004800008BD00BF5C81FF1F10B584B0012000F009FE012000F012FE012000F01BFE002408E02046FFF7C4FF04AB03EB840343F8100C0134032CF4DD009A019B9A420ADD8D
:4004C000039B9A4203DD01220A4BDA610DE00222084BDA6109E0039A934203DD0322054BDA6102E00222034BDA61FFF7B5FF04B010BD00BF5C81FF1F08B54FF4617000F030
:400500009FFC4FF47A7000F0E5FE40F6C41000F097FC4FF47A7000F0DDFE002000F090FC4FF47A7000F0D6FE08BD00BF08B562B600F092FB00F00AFC00F0C6FA00F00CFB9B
:4005400001F038F801F0DEF800F0CCFCFFF754FF5B4800F047FC5B4800F0ECFC00F014FF00F07CFA584C608100F0C0FAA081B4F918300A2B00F28A80DFE803F006161B2D44
:400580003547585F626770004F4B93F900301BB94620FFF701FE79E05320FFF7FDFD4A4A138B0133138371E047F22471FFF798FE6CE0454B93F90030012B03D14620FFF7F3
:4005C000EBFD63E041F2883201463F4BB3F90A00FFF76CFE5AE047F224713B4BB3F90A00FFF798FE52E0384B93F900301BB94620FFF7D2FD4AE0012B48D15320FFF7CCFD1B
:40060000314A138B0133138340E02F4B93F908301BB94320FFF7C0FD38E0012B36D1FFF733FF294A138B013313832FE0FFF764FF254A138B0133138328E0FFF785FE25E07C
:4006400047F22471FFF766FE20E04AF6C87201461D4BB3F90A00FFF729FE17E0012000F021FD4FF47A7000F035FE002000F01AFD4FF47A7000F02EFE08E0012000F08CFBF0
:400680000A2000F03DFE002000F086FB00F07CFB0028F2D00A2000F01DFE08E0012001F047F80A2000F02CFE002001F041F801F037F80028F2D00A2000F00CFE50E700BFE3
:4006C00085000000E10000005C81FF1FFEE700BFF0B40022174611E050F82760F3B226F0FF0608E001EB420511F812406D78A5550132013BDBB2002BF4D10137262FEBD9C0
:40070000F0BC7047064B1B78DBB203F00701054A11701B09013213704422034B1A707047CF0100496E5800407658004008B50A46002101F0D4F908BD38B50122314B1A8047
:40074000182331490B7002310A8002310B7002310A802E4A1370172204310A8002310B7002310A802A4A137033210232118002321370EF2102321180023213700222254BDC
:400780001A7008224FF040231A70032103F500731970214B1B78DBB220490B70204B1A8041F25122023B1A80002419250CE01D4B1B7803F0010343EA440404F003044FF45C
:4007C000F07000F0C1FF013D0DB1032CEFD115B90320FFF77BFF144B4FF480721A8007221A70002211490A704820023108701A700222033B1A700E4A137843F07F03137022
:4008000038BD00BF80400040824000408A400040924000400043004008010049A146004022420040254200400440004006400040A243004008B501F047F908BD38B572B6A8
:400840003E4A137843F00403137000240CE03C4D630019194A0011462A44084691882858FFF764FF0134E4B2092CF0D900240CE03348A20011194B000344B3F84420196CE5
:40088000D86BFFF7D7FF0134E4B2032CF0D92D494FF09040FFF71CFF2B4B2C4A136002F59062136002F5F0621360294A294B1A60294A137843F0020313701032137843F03F
:4008C00002031370254C237843F040032370A2F58632513A137843F010031370082220492048FFF7A7FF0A221F492048FFF7A2FF08221F491F48FFF79DFF08221E491F4880
:40090000FFF798FF08221E491E48FFF793FF1E4A137843F0080313701C4D61232B70FFF70BFF81232B700122194B1A70FFF7EAFE0E2221461748FFF77DFF38BDE846004076
:40094000F41A00009C000048040404845800014004040444D816014003500140A04300408C1100480251004094110048C0510040A011004812510040A81100482251004020
:40098000B011004832510040224300400048004004000840B043004008B501F069F803680C2B00D1FEE7FEE708B5104E104D16E029686B68AC68002204E051F8040B43F8F4
:4009C000040B0432A242F8D1E868002203E0002143F8041B04328242F9D11035013E002EE6D101F04BF8FFF7A1FDFEE701000000801B000008B5104A104B1A60104A1368FE
:400A000043F40073136000230AE0032B03D80D4A52F8231000E00C490C4A42F8231001332F2BF2D90A4B1A780A4B1A70074A0A4B1A60FFF703FF08BD0004FA050CED00E0DF
:400A400014ED00E000000000990900000080FF1FBC760040C080FF1F08ED00E008B500F05FFBA0F5004000B208BD00BF08B5002803DB80B280F4004002E0A0F5004080B20C
:400A800000F048FB08BD00BF024B187800F00F00704700BF63640040014B1870704700BF8364004008B50F20FFF7F6FFFFF7ECFF00F052FE034A137843F01003137000F02C
:400AC0004FFE08BD9364004008B500F07BFB4FF4004000F01FFB044B1B7813B90122024B1A70FFF7DFFF08BD7C81FF1F08B500F091FBA0F5004000B208BD00BF08B5002878
:400B000003DB80B280F4004002E0A0F5004080B200F07AFB08BD00BF024B187800F00F00704700BF66650040014B1870704700BF8665004008B50F20FFF7F6FFFFF7ECFF95
:400B400000F00AFE034A137843F01003137000F007FE08BD9665004008B500F0ADFB4FF4004000F051FB044B1B7813B90122024B1A70FFF7DFFF08BD7D81FF1F024A13789F
:400B800043F080031370704777640040014B1880704700BF0C6A0040014B1880704700BF8C6A0040014B1880704700BF4C6A0040014B1880704700BF6C6A0040014B1870F6
:400BC000704700BF84650040014B1878704700BF64650040014B188880B27047AC6A004008B501E0FFF7F6FFFFF7EEFF10F0100FF8D108BD08B5164A137803F0C00343F026
:400C00000903137002F21F12137843F0010313700132137843F0010313706420FFF7B6FF6420FFF7B9FF0020FFF7BCFF0020FFF7BFFF0020FFF7C2FF00F08EFD054A137811
:400C400043F01003137000F08BFDFFF7C9FF08BD776400409465004008B5054B1B7823B9FFF7C8FF0122024B1A70FFF787FF08BD7E81FF1F024A137843F080031370704704
:400C800075650040014B1880704700BF086A0040014B1880704700BF886A0040014B1880704700BF486A0040014B1880704700BF686A0040014B1870704700BF8565004056
:400CC000014B1878704700BF65650040014B188880B27047A86A004008B501E0FFF7F6FFFFF7EEFF10F0100FF8D108BD10B5154A137803F0C00343F0090313701F32137855
:400D000043F001031370104C237843F0010323706420FFF7B7FF6420FFF7BAFF0020FFF7BDFF0020FFF7C0FF0020FFF7C3FF00F013FD237843F01003237000F011FDFFF7EE
:400D4000CBFF10BD756500409565004008B5054B1B7823B9FFF7CAFF0122024B1A70FFF789FF08BD7F81FF1F024B1878C0F3C000704700BF01510040024B1878C0F380008A
:400D8000704700BF01510040024B1878C0F3C000704700BF21510040044A137803F0EF03000100F0100018431070704720510040014B1B681864704708ED00E04001C0B227
:400DC000014B1870704700BF00E400E00122014B1A60704700E100E00122014B1A60704780E100E010B50446FFF7F6FF2046FFF7DFFF0720FFF7E2FFFFF7E8FF10BD00BF08
:400E0000044A137803F0FD03400000F0020018431070704720510040024A137843F080031370704772640040014B1880704700BF04680040014B1880704700BF8468004008
:400E4000014B1880704700BF44680040014B1870704700BF82640040014B1878704700BF62640040014B188880B27047A468004008B501E0FFF7F6FFFFF7EEFF10F0100FB8
:400E8000F8D108BD10B5154A137803F0C00343F009031370124C237843F0010323702132137843F00103137044F62060FFF7BCFF44F62060FFF7BEFF0020FFF7C1FF002054
:400EC000FFF7C4FF00F048FC237843F01003237000F046FCFFF7CCFF10BD00BF726400409264004008B5054B1B7823B9FFF7CAFF0122024B1A70FFF78FFF08BD8081FF1F29
:400F0000014B1B685864704708ED00E04001C0B2014B1870704700BF01E400E00222014B1A60704700E100E00222014B1A60704780E100E010B50446FFF7F6FF2046FFF73E
:400F4000DFFF0720FFF7E2FFFFF7E8FF10BD00BF024A137843F08003137070477B650040024A137803F07F03137070477B650040014B1870704700BF8A640040014B18784B
:400F8000704700BF6A64004008B50146014800F0C1F908BD28640040024B186820F07F40704700BF4864004008B50146014800F0B1F908BD0864004008B501E0FFF7ECFF50
:400FC000FFF7DCFF10F0080FF8D108BD10B50B4C2046FFF7D9FF2046FFF7E6FF00F0BCFB074A137843F01003137000F0B9FBFFF7E3FF0120FFF7BCFF10BD00BF9F8601009E
:401000009A64004008B5054B1B7823B9FFF7DEFF0122024B1A70FFF79BFF08BD8181FF1F014B1870704700BF79650040044A137803F07F03C001C0B218431070704700BF7A
:4010400000510040044A137803F0FB03800000F0040018431070704710510040044A137803F0FB03800000F0040018431070704720510040044A137803F0DF03400100F00E
:40108000200018431070704720510040044A137803F0BF03800100F0400018431070704720510040044A137803F0FE0300F0010018431070704700BF20510040044A1378B2
:4010C00003F07F03C001C0B218431070704700BF20510040044A137803F0FB03800000F0040018431070704730510040024A137843F08003137070477D640040014B1870F9
:40110000704700BF8C640040014B1878704700BF6C640040014B1880704700BF18680040024B1B78024B188880B270470C64004098680040014B188880B2704798680040D2
:40114000014B1880704700BF58680040014B1880704700BF7868004008B501E0FFF7EAFFFFF7D2FF10F0400FF8D108BD08B5134B1A7802F0F8021A701A7802F0FC021A704B
:40118000FFF7EAFF4FF40040FFF7DAFF4FF40040FFF7C0FF0020FFF7B1FFFFF7B5FF4FF40040FFF7D3FF00F0D7FA054A137843F01003137000F0D4FA08BD00BF7D64004044
:4011C0009C64004008B5054B1B7823B9FFF7CEFF0122024B1A70FFF789FF08BD8281FF1F024A137843F080031370704773640040014B1870704700BF87650040014B1878E2
:40120000704700BF67650040014B1880704700BF0C680040024B1B78024B188880B27047066400408C680040014B188880B270478C680040014B1880704700BF4C68004033
:40124000014B1880704700BF6C68004008B501E0FFF7EAFFFFF7D2FF10F0400FF8D108BD08B5134B1A7802F0F8021A701A7802F0FC021A70FFF7EAFF4FF40040FFF7DAFF7F
:401280004FF40040FFF7C0FF0020FFF7B1FFFFF7B5FF4FF40040FFF7D3FF00F05DFA054A137843F01003137000F05AFA08BD00BF736400409765004008B5054B1B7823B9BA
:4012C000FFF7CEFF0122024B1A70FFF789FF08BD8381FF1F10B5044605E0084B186800F033FAA4F50044B4F5004FF6D8034B586800FB04F000F028FA10BD00BFCC80FF1F40
:4013000008B5034B1B7A00FB03F000F01DFA08BDCC80FF1FCBB20370C1F307234370C1F307418170704700BF7222084B1A70202203F581731A700622A3F5B5731A70472201
:4013400010331A7000225B331A7070478864004010B500F001FA04460A4A137843F02003137002F58172137843F010031370FF3A137843F01003137000F0A2F8204600F026
:40138000EFF910BD9864004008B5054B1B7823B9FFF7CAFF0122024B1A70FFF7D9FF08BD8481FF1F024A137843F080031370704779640040024A137803F07F0313707047E7
:4013C00079640040014B1870704700BF89650040014B1878704700BF6965004008B501460148FFF797FF08BD08650040034B1B78034B186820F07F40704700BF086500400C
:4014000048650040024B186820F07F40704700BF4865004008B501460148FFF77BFF08BD2865004008B501460148FFF773FF08BD3865004008B501E0FFF7E4FFFFF7C8FFE6
:4014400010F0400FF8D108BD08B5134A137803F0F80343F001031370137803F0FC0343F008031370FFF7E6FF0C48FFF7D3FF0020FFF7B4FF1020FFF7A5FFFFF7A9FF80203C
:40148000FFF7D0FF00F068F9054A137843F01003137000F065F908BD79640040FEFFFF009965004008B5054B1B7823B9FFF7CCFF0122024B1A70FFF775FF08BD8681FF1F7E
:4014C000054A137843F0200313701032137843F020031370704700BFA2430040024A137843F08003137070477F640040014B1870704700BF80640040014B1878704700BF4E
:4015000060640040014B1878704700BF7F640040014B1880704700BF5C680040014B188880B270479C680040014B1880704700BF1C680040024B1B78024B188880B27047E7
:401540000E6400409C68004000F00300044B1A7802F0FC021A701A7810431870704700BF7F64004008B501E0FFF7D8FFFFF7C4FF10F0080FF8D108BD08B54FF6FF70FFF7F1
:40158000C7FF4FF6FF70FFF7CFFF00F0E5F8084A137843F01003137000F0E2F80020FFF7D3FFFFF7DFFF0220FFF7A0FF08BD00BF9064004008B5054B1B7823B9FFF7DCFF38
:4015C0000122024B1A70FFF789FF08BD8781FF1F014B1B689864704708ED00E04001C0B2014B1870704700BF02E400E00422014B1A60704700E100E00422014B1A60704767
:4016000080E100E010B50446FFF7F6FF2046FFF7DFFF0720FFF7E2FFFFF7E8FF10BD00BF0422014B1A60704780E200E0024A137843F080031370704775640040014B187035
:40164000704700BF85640040014B1878704700BF65640040014B1878704700BF75640040014B1880704700BF48680040014B188880B2704788680040014B1880704700BF5C
:4016800008680040024B1B78024B188880B27047046400408868004000F00300044B1A7802F0FC021A701A7810431870704700BF7564004008B501E0FFF7D8FFFFF7C4FF7E
:4016C00010F0080FF8D108BD08B54FF6FF70FFF7C7FF4FF6FF70FFF7CFFF00F03DF8084A137843F01003137000F03AF80020FFF7D3FFFFF7DFFF0220FFF7A0FF08BD00BFBC
:401700009564004008B5054B1B7823B9FFF7DCFF0122024B1A70FFF789FF08BD8881FF1F024B187800F00100704700BF01510040044A137803F0EF03000100F010001843CF
:4017400010707047005100400230800803D000BF01380046FCD17047EFF3108072B6704780F31088704700BF80F0004002E000BF81F0004142001FBF5FEA410392EA030F42
:401780007FEA226C7FEA236C6AD04FEA1262D2EB1363C1BFD218414048404140B8BF5B42192B88BF704710F0004F40F4000020F07F4018BF404211F0004F41F4000121F094
:4017C0007F4118BF494292EA030F3FD0A2F1010241FA03FC10EB0C00C3F1200301FA03F100F0004302D5494260EB4000B0F5000F13D3B0F1807F06D340084FEA310102F1B4
:401800000102FE2A51D2B1F1004F40EBC25008BF20F0010040EA03007047490040EB000010F4000FA2F10102EDD1B0FA80FCACF1080CB2EB0C0200FA0CF0AABF00EBC250B7
:4018400052421843BCBFD0401843704792F0000F81F4000106BF80F400000132013BB5E74FEA41037FEA226C18BF7FEA236C21D092EA030F04D092F0000F08BF084670479E
:4018800090EA010F1CBF0020704712F07F4F04D1400028BF40F00040704712F100723CBF00F50000704700F0004343F0FE4040F4000070477FEA226216BF08467FEA23634F
:4018C0000146420206BF5FEA412390EA010F40F4800070474FF0000304E000BF10F0004348BF40425FEA000C08BF704743F0964301464FF000001CE050EA010208BF704729
:401900004FF000030AE000BF50EA010208BF704711F0004302D5404261EB41015FEA010C02BF84460146002043F0B64308BFA3F18053A3F50003BCFA8CF2083AA3EBC25380
:4019400010DB01FA02FC634400FA02FCC2F12002BCF1004F20FA02F243EB020008BF20F00100704702F1200201FA02FCC2F1200250EA4C0021FA02F243EB020008BF20EACD
:40198000DC7070474FF0FF3C06E000BF4FF0010C02E000BF4FF0010C4DF804CD4FEA40024FEA41037FEA226C18BF7FEA236C11D001B052EA530C18BF90EA010F58BFB2EBB6
:4019C000030088BFC81738BF6FEAE17018BF40F0010070477FEA226C02D15FEA402C05D17FEA236CE4D15FEA412CE1D05DF8040B704700BF844608466146FFE70FB5FFF7BC
:401A0000C9FF002848BF10F1000F0FBD4DF808EDFFF7F4FF0CBF012000205DF808FB00BF4DF808EDFFF7EAFF34BF012000205DF808FB00BF4DF808EDFFF7E0FF94BF0120A6
:401A400000205DF808FB00BF4DF808EDFFF7D2FF94BF012000205DF808FB00BF4DF808EDFFF7C8FF34BF012000205DF808FB00BF014B1868704700BF3C81FF1F0E4B70B5A6
:401A80001E460E4C0025E41AA410A54204D056F8253098470135F8E700F060F8084B094C1E46E41AA4100025A54204D056F8253098470135F8E770BD681B0000681B00008F
:401AC000681B0000701B000010B5431E0A44914204D011F8014B03F8014FF8E710BD03460244934202D003F8011BFAE77047000000000000405100403000F05100401000FA
:401B0000000001408006000701408007000F0140000100140140000480180140800300400140000A004C0140000200500140200060520040041000480600800601400C1007
:401B400000488000800E01408C1000488000001801400C110048800043000000F8B500BFF8BC08BC9E4670474D000000F5090000F8B500BFF8BC08BC9E4670472900000077
:401B8000901B0000C880FF1F7800000050000000000000000000E02EC05D00001800000000366E010000000000000000000000000000000000000000000000000000000064
:401BC00000000000581B0000000000000000000000000000000000000000000000000000000000000000000000000000000000000000000000000000000000000000000072
:401C000000000000DC80FF1F00000000000000000000000000000000000000000000000000000000000000000000000000000000000000000000000000000000000000002A
:401C40000000000000000000000000000000000000000000000000000000000000000000000000000000000000000000000000000000000000000000000000000000000064
:401C80000000000000000000000000000000000000000000000000000000000000000000000000000000000000000000000000000000000000000000000000000000000024
:401CC00000000000000000000000000000000000000000000000000000000000000000000000000000000000000000000000000000000000000000000000000000000000E4
:401D000000000000000000000000000000000000000000000000000000000000000000000000000000000000000000000000000000000000000000000000000000000000A3
:020000040003F7
:0200000480007A
:400000000352004008640040066500405300014038010140680201404A0301405E0401405005014030060140430701406808014048090140680A01404D0B0140630C014013
:40004000450D0140270E0140370F01405C1401403E150140601601404A1701402D18014056190140701A0140581B01400440014009410140084201400443014001440140F4
:4000800007450140054801400A490140084C01400A4D01400850014001510140012018091908800F820D830F850F88728A0D8B0F8C6F840F850F860F876F89778A380004F3
:4000C0000208041C08100B020E1C0F0410021201150116201A101C041E082203241C284329012E4030403102323C330434023601370139803E514003450449FF4A074BFF87
:400100004C404D204EF04F05500854035604580459045A045B045C115D455F05604061A862406320810E83F0842D857F8610883189968A088B6891C5933A942096059701C0
:4001400099FE9B019C319E04A001A23CA41CA9A3AA02AB5CB23CB3FFB403BF04D804D904DC01DF0100100181031005200710084009010B180C400E020F2011441288150525
:400180001720182019511E081F142080228827202A202D202F0431043615371039403B203C103D053F2041044890490858025AA05B0461027A20862089028C108D80C06F03
:4001C000C2AFC47FCA24CCE2CEECD002D60FD801DE02E622013E02010D0E0F20130F15021602171019041B50270F2A022D082F503140320133013402350E37303E103F0195
:400200004030410649FF4AFF4BFF4DA04F04501852805405580459045A045B045C035D335F01604062C06440654066C068C06AC06CC06EC089618B168C088F1C915C920866
:4002400093039608980199619B0E9F23A607A708AA02B002B10FB208B360B404B51AB601B908BB22BE04BF04C030C106C5D1C702C813C9FFCAFFCBFFCDAFCE0FCF04D01844
:40028000D280D40FD804D904DA04DB04DC53DD13DF01E040E2C0E440E540E6C0E8C0EAC0ECC0EEC0008006400A480B200C040D081024160419801A981C041D082124220288
:4002C00024402540272429082F2230803120320235023724388039203DA03E124108450848204A084B014E08520C59505A045B025C045D805F0172407640810182208604FC
:4003000087028D0590209328954D971099599D049E21A0D0A501A611A710AA51B482B704C011C22EC446CA52CCEDCE9CD042D224D6DFE206E603EE05002F040606100A0EFA
:40034000121916031A2F222F2C05301F342039023A023E103F0140354101420249FF4AFF4BFF4F015018580459045A045F016040624064406540668068806A806C806E80A4
:40038000800282018407861089068A0F8B188E04910A931494019602971E9F1EA11EA20FA51EA618A701A80FA90AAB14AD06AF18B21FB31EB701BA08C034C101C206C5EC52
:4003C000C720C823C9FFCAFFCBFFCD83CE03CF01D018D283D403D604D804D904DA04DB04DF05E040E240E440E540E680E880EA80EC80EE8001080280030805090705082022
:400400000A500E1010021302148816201702180419011A481F08210127222E622F28348037053E1040244202430445024602470448014E044F055401550257025C405F2506
:4004400066016C026E106F0175027E10840885018680872088108910906093089480952597109B049D029E03A010A110A202A611A732A920B540B640C0FEC22EC479CAF0F7
:40048000CCD0CE20D0DED228D6F0D880DE40E208E804EA1009050BFA100811CA13251577180119BF1B401C031E0C2183231C280329CC2B13300431F032013408350F36021E
:4004C00038883E144023410649FF4AFF4BFF4DA04F015018580459045A045C115D015F016040628064406540668068406A806C406D206E800004038208200AA10C200E4836
:400500000F011018112016041A801B941D081E441F402080231025022611270428102B102C802F043020310233043615382039303A403B0C3F2041184518480849044B01D6
:400540004D10504052245D045E08734088808A4090209102930895049710A110A611A710A840A908AA12B202C00DC2DFC444CAA2CCE7CE2ED066D224EA01000102020308CE
:40058000040106061303180119011A0A1C021E01221023042708300831043210330234043508360337013A803F504062410549FF4AFF4BFF4F0150185602571158045904F1
:4005C0005A045B045C615D565F016040624064406540668068806A806C806E808430857786C98CCF8E30909491109260932F94FD957B9602970499489B019E0F9F70A09E75
:40060000A10CA260A342A473A780AD1CAF21B10FB2FFB7F0BE04C062C105C9FFCAFFCBFFCD83CE03CF01D018D280D804D904DA04DB04DC10DD66DF01E040E240E440E540F7
:40064000E680E880EA80EC80EE800080020103200505080109890E0A12401306150119081D051E0A1F402080218024832620271029082A412CA02E802F02300131883320D1
:40068000360237103B043F0140084408460448024A084C024E085E206E146F017280760277248B409304968097809A049B029C01A108A242A442A581A608A720AB04AC8059
:4006C000AF10B280C035C2CDC41CCACBCCAFCE82D024D23CD620E680EC20000105770DCC0F31120115FB170419501BAF1DAC1E031F522D382FC1300233F03401370F3E1006
:400700004063410545EC4702481349FF4AFF4BFF4D834E034F01501854015604580459045A045B045C115D665F056040624064406540668068806A806C806E80801C822231
:40074000842C86118A208C308E0C91139203930C9410970899209B05A103A220A304A409A610A814A913AB04AC40AD0AAF14B01FB440B530B620B70FB920BB80BE50C01388
:40078000C102C60CC7EBC834C9FFCAFFCBFFCEF0CF44D00CD401D804D904DA04DB04DC55DD55DF01E6C0EA40EB0201020420051006A007290A420C040E8014021649170417
:4007C00019021A081E881F8020202108228023022540270528812B802C802EA03108328033203510370538403B04410445404728480249054A0951045204548056495905D2
:400800005A805C825E085F1062027A0187408804894090609242930496089A209F02A450A581A720AA20B680C0F8C239C4F0CAB8CCEECE0AD072D20CD6FBD801DE08E4806C
:40084000E620EA400601130315011A021C01220230013202330235013E013F104063410149FF4AFF4BFF4DA04F015018540F580459045A045B045C145D115F056040628058
:4008800064406540668068406A806C406D206E80849685028668870188FE890E8A018CA38D388E5C900E92F09B209D209E01A0C5A102A23AA47FA740A934AD38B160B2FF0A
:4008C000B302B51CB701B928BE04BF04C063C101C53EC6C4C702C81FC9FFCAFFCBFFCDAFCE07CF01D018D280D804D904DA04DB04DC10DD11DF01E040E280E440E540E6801B
:40090000E840EA80EC40ED20EE8000E0032804080540072209010A820C200F011306168019041EA02118221123052604270829452B08324033203501360438483920418838
:40094000458849294D204E04500452905D815F2865086610724079017A407E108181870C8C048D8090209A80A020A610A820AB28B410B644C027C2C9C41CCA0FCCCCCE0E1D
:40098000D05AD224D6F0D860DE40E210E440EA11EC40EE1006600E3E123E140416081C1C1E40243E260128082A042E103001327C34023A083E1040514104420649FF4AFF79
:4009C0004BFF4F01501858045A045C045D045F016040624064406540668068806A806C806E8000400108054406600708088009040B810C200E600F01102A17651840192CD8
:400A00001A481C021DC01F68250427282C202E202F803480361037093C423D083E104080438044804580480149204E444F80564457C06C0A6E106F05768077408480C0F528
:400A4000C2FDC4F7CAE0CCF0CEF0D099D23CE6020D08120115021B0C1E0E1F03220426082A02300831043204330134023508360137023E104030410249FF4AFF4BFF4DA0C2
:400A80004F0450185407580459045A045B045C225D225F01604062C06440654066C068C06AC06CC06EC0830C87038A0E910299089E08A602AA04AE01B004B102B201B3080B
:400AC000B402B504B608B701BE10C030C102C5D0C620C751C83AC9FFCAFFCBFFCDAFCE0FCF04D018D280D407D804D904DA04DB04DC22DD22DF01E040E2C0E440E540E6C05B
:400B0000E8C0EAC0ECC0EEC004100A020B400F0210A012081628174019021A161C101D081E881F8020422214262027A230A032043620370238403E083F02401041204528F4
:400B4000480149404F0155205628570159415A245E085FA17740864087808D028E10934096029901A0A0A208A908AD01B70BC040C289C4EECCAECEC8D066D6FFE240E61099
:400B8000EC02EE0404010642081809030C010E06100112021402160118301C302303242829022B0130043101320333023438364038203A083F054050410649FF4AFF4BFFCA
:400BC0004DA04F045018540F580459045A045B045C015D125F01604062C06440654066C068C06AC06CC06EC088028F059302950496049E08AA03B002B104B201B301B408A8
:400C0000B502B604BE01BF01C050C106C5D5C601C702C817C9FFCAFFCBFFCDAFCE0FCF04D018D40FD804D904DA04DB04DC11DD12DF05E040E2C0E440E540E6C0E8C0EAC059
:400C4000ECC0EEC0001005580A200B020E620F0412041704181419021A011D501E681F08210822102390244027202D102F403108330238803F10482049814A084D804E09C4
:400C800050805208581059025A045B805C415E085F2061046220641066047A0480018304884090809112920493C49404962199049A049B04A040A221A604A702B420B7042B
:400CC000C0E2C2F5C422CAA0CC03CE28D23CD6FFD806DE04E080E20486028D0C910792019B029D019F0CB201B308B402B506B701B980BF44C065C103C201C9FFCAFFCBFF91
:400D0000CDAFCE07CF01D018D417D604D804D904DA04DB04DC61DD66DF05E040E280E440E540E680E840EA50EBA8EC40ED20EE50EFA801080448050208020B300E0A0F50BF
:400D4000148016021724182019101D011E011F182002218022142440254026102D102F1930823210348035023602372438803C483E02400142204410458046204801492078
:400D80004C014D204F20582059405A086001610862116802694079408108820188408A028B488E048F0190839214968097019A069B25A260A302A4A2A501A618B101B72098
:400DC000C0B4C2F8C4F0CA70CCFDCED8D05AD23CD60ED80FDE08E080E420E604E84000080170030804020540070509200B050D7C0E081408151017041F72220C26033004DE
:400E0000310C3201337034083502360237013E503F40406541034201450546C0472E483D49FF4AFF4BFF4DAF4E074F0150185418580459045A045B045C665D565F016040FE
:400E4000628064406540668068406A506BA86C406D206E506FA8811282018364853F893F8D048F8A90029101952897549A01A204B001B10EB202B301B404B530B7C0BE05EF
:400E8000BF40C062C105C204C401C5ECC803C9FFCAFFCBFFCC62CDA0CEF0CF41D00CD280D804D904DA04DB04DC55DD65DF01E640E702E910EA30EB10ED10EE10EF12010A65
:400EC00003020501064008020A600E800F0810601480195A1B101C081E401F0821112248244825402605272832083340370939623A043C403D023E144001422045404640D5
:400F00004720482149104D104E024F095081510852105A0160026220774087088CA18D01900191509235940896809701984099019A249B019CA09D409E10A001A262A30257
:400F4000A484A508A60DA710A802A910AC30AD40B410B501C01DC254C41CCCCACEFFD0BAD23CD601D80CE402E810EA40EE41302237108820CC70038008086010A402AB10EB
:400F8000C010C210D840EA20028087809808A380A402B410C010E410A280A402A808EC20874004800B4094809740A840C001C20880028A80A280A402E220538056805F40DD
:400FC000630287418E808F80D460D660E65008880C020E088204A402B002C20FEE011220740484048E20A880B408C408DE04E208EA02007F083B0A270C620E1210661A0656
:401000001C62003F80800000400000000200050002CF0C300000000F10942060029E046010FD2002207310001000200000000000043002C90000000000000000010030FF37
:4010400006000800000028020000000463020000003EC4021FFFFFFF00AF07011800800000000000040404045121000140008000404080004000800040208000000000007D
:401080000000000000000000000000008000013D0A001470E000002420001E3C00281E00400001021E00E001FE0F00400A001401063C18000600181C0000E0000000017C81
:4010C0001E03E00000000008000004001504060000E0020C16FFFFFF0083030118008300000000000404040444440001400040004040800080008000800080000000000088
:40110000000000000000000000000000FF10000022000001000000008C397344F37F0C000F08F0000018F3003301000011000000043900420C670018080000068C1F0F005A
:401140004C2030400080280200000010610305000000000000FFFFFF00A00001180000000000000004040400550600014000800040408000400050A8402050A80000000002
:401180000000000000000000000000000DF0F00020000000800044808000800000000000F00F0F000000000008F7F70000000000001F1F001B000000000000000000000081
:4011C00000000000000000000000000000000000000000000000000000000000000000000000000000000000000000000000000000000000000000000000000000000000EF
:4012000000000000000000000000000000000000000000000000000000000000000000000000000000000000000000000000000000000000000000000000000000000000AE
:40124000000000000000000000000000000000000000000000000000000000000000000000000000000000000000000000000000000000000000000000000000000000006E
:40128000000000000000000000000000000000000000000000000000000000000000000000000000000000000000000000000000000000000000000000000000000000002E
:0200000490006A
:0400000000004005B7
:0200000490105A
:04000000BC90ACAF55
:0200000490303A
:020000007ABFC5
:0200000490402A
:4000000000000000000000000000000000000000000000000000000000000000000000000000000000000000000000000000000000000000000000000000000000000000C0
:400040000000000000000000000000000000000000000000000000000000000000000000000000000000000000000000000000000000000000000000000000000000000080
:400080000000000000000000000000000000000000000000000000000000000000000000000000000000000000000000000000000000000000000000000000000000000040
:4000C0000000000000000000000000000000000000000000000000000000000000000000000000000000000000000000000000000000000000000000000000000000000000
:0200000490501A
:0C00000000012E16106900012E268B282E
:00000001FF