:400000000080002011000000B5110000B511000008B5044B1A6803F53F5302331A6001F0D1F800BFFA46004010B5054C237833B9044B13B10448AFF300800123237010BD21
:400040005081FF1F00000000002B0000084B10B51BB108490848AFF300800848036803B910BD074B002BFBD0BDE81040184700BF000000005481FF1F002B0000C880FF1F9C
:400080000000000038B501F0B1FD01F0C7FDC0F57F43FF33104880FB03201844DB17C3EB601002F023FC04460C4B186802F01EFC05460146204602F0BBFC18B10122084BD6
:4000C0001A7038BD2946204602F0D0FC10B10022034B1A7038BD00BF09CB3D8DCC80FF1F6C81FF1F38B501F01DFE01F033FEC0F57F43FF33104880FB03201844DB17C3EBB6
:40010000601002F0F3FB04460C4B586802F0EEFB05460146204602F08BFC18B10122084B5A7038BD2946204602F0A0FC10B10022034B5A7038BD00BF09CB3D8DCC80FF1FAA
:400140006C81FF1F38B501F09DFE01F0B3FEC0F57F43FF33104880FB03201844DB17C3EB601002F0C3FB04460C4B986802F0BEFB05460146204602F05BFC18B10122084BD2
:400180009A7038BD2946204602F070FC10B10022034B9A7038BD00BF09CB3D8DCC80FF1F6C81FF1F38B501F02BFF01F041FFC0F57F43FF33104880FB03201844DB17C3EB37
:4001C000601002F093FB04460C4BD86802F08EFB05460146204602F02BFC18B10122084BDA7038BD2946204602F040FC10B10022034BDA7038BD00BF09CB3D8DCC80FF1FEA
:400200006C81FF1F08B501F059FC01F01DFA002001F0A8FA01F026FA01F0DEFE01F068FC024B988001229A6008BD00BF6C81FF1F10B5044601F032F81C4B186001F0CCF8F3
:400240001B4B1860462C16D1184B1B681A1A092A01DC984206D12822164B1A705022164B1A6008E0C31A092B05DD5A22114B1A705022114B1A60422C16D10C4B1B681A1A02
:40028000092A01DC984206D15A220A4B1A705022094B1A6010BDC01A092805DD2822054B1A705022044B1A6010BD00BFC481FF1FA081FF1FC081FF1FBC81FF1F08B54238AA
:4002C000242800F20581DFE810F05500CB0003010301250003010301030103010301A50003010301030103010301B8008C000301030103010301DE00F1000301030103012A
:40030000030103010301030103016F000301030103013F004620FFF78BFF012001F0E8F8002001F0F1F8012001F0FAF8002001F003F9684B93F9000080B201F0EFFE664B0C
:40034000188801F0F1FE08BD4620FFF771FF012001F0CEF8002001F0D7F8012001F0E0F8002001F0E9F8502001F0D8FE502001F0DBFE08BD4220FFF75BFF002001F0B8F82F
:40038000012001F0C1F8002001F0CAF8012001F0D3F8504B93F9000080B201F0BFFE4E4B188801F0C1FE08BD4220FFF741FF002001F09EF8012001F0A7F8002001F0B0F864
:4003C000012001F0B9F8434B93F90000143880B201F0A4FE404B1868143880B201F0A4FE08BD002001F084F8002001F08DF8002001F096F8002001F09FF8002001F08EFE27
:40040000002001F091FE002000F05EFF002000F0F9FF08BD002001F06BF8012001F074F8012001F07DF8002001F086F8502001F075FE502001F078FE08BD012001F058F808
:40044000002001F061F8002001F06AF8012001F073F8502001F062FE502001F065FE08BD012001F045F8002001F04EF8012001F057F8002001F060F8502001F04FFE50204A
:4004800001F052FE08BD002001F032F8012001F03BF8002001F044F8002001F04DF8502001F03CFE002001F03FFE08BD002001F01FF8002001F028F8002001F031F80120B1
:4004C00001F03AF8002001F029FE502001F02CFE08BD00BFC081FF1FBC81FF1F70B505460E4600240BE0002000F0EEFE002000F089FF00231E4A13601E4A13600124002C47
:40050000F1D031E000F0CAFE194B186000F064FF184B1860462D12D1B04203DD144B1B689E4203DB4620FFF7C9FE1DE05320FFF7C5FE00240E4B1C600E4B1C6014E0422DE2
:4005400012D17342984203DA094A1268934203DC4220FFF7B3FE07E05320FFF7AFFE0024034B1C60034B1C60002CCBD170BD00BFC481FF1FA081FF1F70B505460E460024AF
:400580000BE0002000F0A0FE002000F03BFF00231A4A13601A4A13600124002CF1D02AE000F07CFE154B186000F016FF144B18604C2D0ED1B04203DC4C20FFF77FFE1AE04B
:4005C0005320FFF77BFE00240C4B1C600C4B1C6011E0522D0FD1094B1B689E4203DB5220FFF76CFE07E05320FFF768FE0024034B1C60034B1C60002CD2D170BDC481FF1FCB
:40060000A081FF1F10B5002432E000F0A9FF01280AD100F09DFF012806D1C82001F0BCF94220FFF74BFE23E000F09AFF012809D100F08EFF30B9C82001F0AEF95920FFF745
:400640003DFE15E000F08CFF50B900F081FF012806D1C82001F0A0F95820FFF72FFE07E05320FFF72BFE4FF4FA7001F095F90124002CCAD010BD00BF08B5012001F072F8F4
:40068000012001F039F8012001F086F9002001F033F80022044B9A6001F07EFA034801F08DFC01F01BF808BD6C81FF1F0502000008B501F08BFD00F043FE00F0DFFE01F091
:4006C000EDFA01F087FB01F035FC01F0F1FC01F0EBFD01F067FEFFF7CFFF0E4800F076FF0D4800F09BFF0D4801F000FB0C4801F0ADFB01F0CDF901F0B1FE4FF4FA7001F0F0
:40070000FBFD40F6980001F0F1FD4FF4617001F085FD08BD85000000E500000045010000A501000008B503281ED8DFE800F002091017002000F0FEFF002001F007F808BDC9
:40074000002000F0F7FF012001F000F808BD012000F0F0FF002000F0EDFF08BD012000F0E9FF012000F0F2FF08BD00BF08B5FFF7D9FF012000F0C6FF002000F0CFFFFFF72F
:400780007BFF034B9B68002BFBD0014B988808BD6C81FF1F10B584B0002408E02046FFF7E5FF04AB03EB840343F8100C0134032CF4DD009A019B9A4204DD039B9A4206DDF7
:4007C000012007E0039A934203DD032002E0022000E0022004B010BD08B5012814D14AF6C8714620FFF77AFE43F67A715220FFF7C3FE42F6E0614620FFF770FE43F2C23125
:400800004C20FFF7B9FE15E0022813D14AF6C8714620FFF763FE43F2C2314C20FFF7ACFE42F6E0614620FFF759FE43F2C2315220FFF7A2FE024A137B0133137308BD00BFBE
:400840006C81FF1F38B5002000F03EFD002000F0D9FDC54D00242C60C44B1C6000F01EFD2860C34B0F225A601A604FF4FA7001F043FD4FF42F7001F039FD4FF4FA7001F077
:400880008BF840F2B63001F037FD4FF4FA7001F083F864E101F070FB012840F00C81B54B93F900301BB1B34B93F9013013B94620FFF704FDAF4B93F90130012B04D0AD4BBD
:4008C00093F90030012B78D15320FFF7F7FCA64B19684220FFF702FEA74B1B68012B19D1A44B1B69A54A134003D5013B63F001030133012B0ED143F2C2314C20FFF73CFEF3
:4009000044F620614620FFF7E9FD43F67A715220FFF732FE984B1B68012B13D1954B1B6913F0010F0ED143F67A715220FFF724FE44F620614620FFF7D1FD43F2C2314C200B
:40094000FFF71AFE8C4B1B68022B19D1894B1B698A4A134003D5013B63F001030133012B0ED143F67A715220FFF706FE44F620614620FFF7B3FD43F2C2314C20FFF7FCFDF5
:400980007D4B1B68022B15D17A4B1B6913F0010F12D143F2C2314C20FFF7EEFD44F620614620FFF79BFD43F67A715220FFF7E4FD012402E0012400E001246B4B1A68704BE5
:4009C0009A4204DC694B1A686D4B9A4273DD5320FFF774FC644B19684220FFF77FFD664B1B68012B19D1634B1B69644A134003D5013B63F001030133012B0ED143F2C231F5
:400A00004C20FFF7B9FD42F210714620FFF766FD43F67A715220FFF7AFFD574B1B68012B13D1544B1B6913F0010F0ED143F67A715220FFF7A1FD42F210714620FFF74EFD22
:400A400043F2C2314C20FFF797FD4B4B1B68022B19D1484B1B69494A134003D5013B63F001030133012B0ED143F67A715220FFF783FD42F210714620FFF730FD43F2C2310F
:400A80004C20FFF779FD3C4B1B68022B13D1394B1B6913F0010F0ED143F2C2314C20FFF76BFD42F210714620FFF718FD43F67A715220FFF761FD01F05FFAB0B95320FFF72B
:400AC000FDFB4FF47A614620FFF708FD294A137B01331373012408E0012000F051FD0A2000F070FF002000F04BFD00F041FD0028F2D00A2000F050FF08E0012001F080F983
:400B00000A2000F05FFF002001F07AF901F070F90028F2D00A2000F03FFF08E0012001F017FA0A2000F04EFF002001F011FA01F01BFA0028F2D00A2000F02EFF08E001204F
:400B400001F0CCFA0A2000F03DFF002001F0C6FA01F0BCFA0028F2D00A2000F01DFF002C3FF498AE38BD00BFC481FF1FA081FF1FCC80FF1F6C81FF1FA481FF1F010000809C
:400B80000077010008B54FF4FA7001F0B5FB4FF4FA7000F001FF4FF4166001F0A7FB4FF4FA7000F0F9FE024A137B0133137308BD6C81FF1F10B50446374B23225A601A60C7
:400BC000364B1B6913F0010F0ED1012805D143F67A715220FFF7D0FC06E0022804D143F2C2314C20FFF7C8FC2C4A136901331361FFF708FD44F620614620FFF76FFC012C30
:400C000004D143F67A715220FFF7B6FC022C04D143F2C2314C20FFF7AFFC002434E01F4B93F900301BB11D4A92F901201AB94620FFF744FB10E0012B00D06AB95320FFF746
:400C40003DFB012408E0012000F09AFC0A2000F0B9FE002000F094FC00F08AFC0028F2D00A2000F099FE08E0012001F0C9F80A2000F0A8FE002001F0C3F801F0B9F80028F5
:400C8000F2D00A2000F088FE002CC8D0034A137B0133137310BD00BFCC80FF1F6C81FF1F10B5FFF777FD04464FF42F7001F024FB4FF47A7000F070FE4FF4FA7001F01CFBCD
:400CC0004FF47A614220FFF709FC022C1AD0032C25D0012C39D1012000F050FD4FF47A7000F05AFE002000F049FD40F6C41001F095FA4FF4FA7000F04FFE4FF4617001F064
:400D00008DFA22E04FF4C86001F088FA4FF4FA7000F042FE4FF4617001F080FA15E0012000F038FD4FF47A7000F036FE002000F031FD4FF4E16001F071FA4FF4FA7000F0A9
:400D40002BFE4FF4617001F069FA024A137B0133137310BD6C81FF1F38B50446364B1B69364A134003D5013B63F001030133012B26D146F284714C20FFF7FEFB4CF250315E
:400D80004620FFF7ABFB00214620FFF7A7FB012C05D143F67A715220FFF7EEFB06E0022C04D143F2C2314C20FFF7E6FBFFF72AFC48F6B8014620FFF791FB49F6404500E0A7
:400DC00000251D4B1B6913F0010F31D141F288314220FFF783FB012C05D143F2C2314C20FFF7CAFB06E0022C04D143F67A715220FFF7C2FBFFF706FC11494620FFF76EFB70
:400E000029464620FFF76AFB012C05D143F2C2314C20FFF7B1FB06E0022C04D143F67A715220FFF7A9FB48F6B8014620FFF756FB0122014B1A7338BD6C81FF1F010000800F
:400E4000084C010010B562B6FFF732FC01F0B8FA012803D10122184B1A6005E001F0B0FA10B90222144B1A600024144B93F90C30052B1DD8DFE803F003080B0E13160E4B66
:400E80001868FFF7A9FC13E0FFF7DCFC10E0FFF779FE0DE0084B1868FFF78CFE08E0FFF7FFFE05E02146044B1868FFF755FF01340A2000F071FDD8E7A481FF1F6C81FF1FAF
:400EC000FEE700BFF0B40022174611E050F82760F3B226F0FF0608E001EB420511F812406D78A5550132013BDBB2002BF4D101372A2FEBD9F0BC7047064B1B78DBB203F04E
:400F00000701054A11701B09013213704422034B1A707047CF0100496E5800407658004008B50A46002101F0E2FD08BD38B50122344B1A80182334490B7002310A80334A84
:400F40001370172204310A8002310B7002310A8002310B7002310A802D4A137033210232118002321370EF21023211800232137047F22F52274B1A80192502331D700222E0
:400F800003F262231A7008224FF040231A70032103F500731970204B1B78DBB21F490B701F4B1A8041F25122023B1A8000240CE01C4B1B7803F0010343EA440404F003045F
:400FC0004FF4F07001F0C8FB013D0DB1032CEFD115B90320FFF774FF134B4FF480721A8007221A70002211490A704820023108701A700222033B1A7003F2A1331A78FF227A
:401000001A7038BD804000408240004086400040924000409C40004008010049A14600402242004025420040044000400640004008B501F051FD08BD38B572B6444A13783E
:4010400043F00403137000240CE0424D630019194A0011462A44084691882858FFF760FF0134E4B20C2CF0D900240CE03948A20011194B000344B3F85820596D186DFFF715
:40108000D7FF0134E4B2042CF0D933494FF09040FFF718FF314A324B1A60324B32490B6080310A6001F5C0710B6001F500710A602E4A136002F564522B32137843F00203F3
:4010C00013701032137843F002031370284C237843F040032370A2F58632513A137843F010031370082223492348FFF7A1FF0A2222492348FFF79CFF082222492248FFF780
:4011000097FF082221492248FFF792FF082221492148FFF78DFF0A2220492148FFF788FF204A137843F0080313701F4D61232B70FFF7FCFE81232B7001221C4B1A70FFF720
:40114000DBFE0E2221461A48FFF772FF38BD00BFE8460040042B0000AC00004804040444D802014004040484580A0140D8160140A04300401014004802510040181400488E
:40118000C051004024140048F25100402C1400481251004034140048225100403C14004830510040224300400048004004000840B043004008B501F063FC03680C2B00D1E8
:4011C000FEE7FEE708B5104E104D16E029686B68AC68002204E051F8040B43F8040B0432A242F8D1E868002203E0002143F8041B04328242F9D11035013E002EE6D101F0C6
:4012000045FCFFF71FFEFEE701000000AC2B000008B5104A104B1A60104A136843F40073136000230AE0032B03D80D4A52F8231000E00C490C4A42F8231001332F2BF2D984
:401240000A4B1A780A4B1A70074A0A4B1A60FFF7F3FE08BD0004FA050CED00E014ED00E000000000B51100000080FF1FBC760040C080FF1F08ED00E008B50122054B1A606C
:401280000549002000F0A8FB0721002000F0B8FB08BD00BF80E100E07513000010B50124064B1C6000F09CFAA0F5004000B2044B1B68044A1460184410BD00BF80E100E074
:4012C0008481FF1F00E100E038B505460124054B1C604FF4004000F07DFA034B1D60034B1C6038BD80E100E08481FF1F00E100E0024B187800F00F00704700BF60640040F2
:4013000040F00700014B1870704700BF8064004008B50F20FFF7F4FFFFF7EAFF01F024FA054A137843F01003137001F021FA0122024B1A6008BD00BF9064004000E100E033
:4013400008B500F09FFA4FF4004000F043FA0022064B1A60064B1B7823B9FFF78DFF0122034B1A70FFF7D4FF08BD00BF8481FF1F8081FF1F0D4B1B78DBB213F0010F06D05D
:401380000B490A6802F5FF427F320A6007E013F0020F04D006490A68A2F500420A6013F0040F02D00022024B1A607047606400408481FF1F08B50222054B1A600549012078
:4013C00000F00AFB0721012000F01AFB08BD00BF80E100E0B114000010B50224064B1C6000F078FAA0F5004000B2044B1B68044A1460184410BD00BF80E100E08C81FF1F97
:4014000000E100E038B505460224054B1C604FF4004000F059FA034B1D60034B1C6038BD80E100E08C81FF1F00E100E0024B187800F00F00704700BF6564004040F00700B2
:40144000014B1870704700BF8564004008B50F20FFF7F4FFFFF7EAFF01F086F9054A137843F01003137001F083F90222024B1A6008BD00BF9564004000E100E008B500F0AF
:401480007BFA4FF4004000F01FFA0022064B1A60064B1B7823B9FFF78DFF0122034B1A70FFF7D4FF08BD00BF8C81FF1F8881FF1F0D4B1B78DBB213F0010F06D00B490A683B
:4014C00002F5FF427F320A6007E013F0020F04D006490A68A2F500420A6013F0040F02D00022024B1A607047656400408C81FF1F044A137803F0EF03000100F010001843F0
:4015000010707047C0510040044A137803F0DF03400100F02000184310707047C0510040044A137803F0BF03800100F0400018431070704720510040044A137803F07F0371
:40154000C001C0B218431070704700BF20510040024B1878C0F38000704700BF31510040024B1878C0F34000704700BF31510040024B1878C0F30010704700BF215100401E
:40158000044A137803F0DF03400100F0200018431070704720510040014B1B689864704708ED00E04001C0B2014B1870704700BF02E400E00422014B1A60704700E100E06B
:4015C0000422014B1A60704780E100E010B50446FFF7F6FF2046FFF7DFFF0720FFF7E2FFFFF7E8FF10BD00BF014B1B68D864704708ED00E04001C0B2014B1870704700BFD8
:4016000003E400E00822014B1A60704700E100E00822014B1A60704780E100E010B50446FFF7F6FF2046FFF7DFFF0720FFF7E2FFFFF7E8FF10BD00BF024A137843F080036B
:401640001370704778650040024A137803F07F031370704778650040014B1870704700BF8B650040014B1878704700BF6B650040014B1880704700BF546A0040014B188850
:4016800080B27047946A0040014B1880704700BF146A004008B501E0FFF7F0FFFFF7E2FF10F0080FF8D108BD08B54FF6FF70FFF7DFFF4FF6FF70FFF7E7FF01F055F8064A89
:4016C000137843F01003137001F052F8FFF7E2FF0120FFF7C1FF08BD9B65004008B5054B1B7823B9FFF7E0FF0122024B1A70FFF7A3FF08BD9081FF1F014B1870704700BF87
:4017000078640040044A137803F0DF03400100F0200018431070704700510040044A137803F0F703C00000F0080018431070704700510040044A137803F0FE0300F001000C
:4017400018431070704700BF00510040044A137803F0FD03400000F0020018431070704700510040044A137803F0EF03000100F0100018431070704700510040044A1378AB
:4017800003F0FD03400000F0020018431070704720510040044A137803F0EF03000100F01000184310707047F0510040024A137843F080031370704770640040014B187040
:4017C000704700BF8C640040014B1878704700BF6C640040014B1880704700BF1C680040024B1B78024B188880B270470E6400409C680040014B188880B270479C680040FE
:40180000014B1880704700BF5C680040014B1880704700BF7C68004008B501E0FFF7EAFFFFF7D2FF10F0400FF8D108BD08B5134B1A7802F0F8021A701A7802F0FC021A707C
:40184000FFF7EAFF4FF40040FFF7DAFF4FF40040FFF7C0FF0020FFF7B1FFFFF7B5FF4FF40040FFF7D3FF00F07FFF054A137843F01003137000F07CFF08BD00BF7064004030
:401880009C64004008B5054B1B7823B9FFF7CEFF0122024B1A70FFF789FF08BD9181FF1F024A137843F080031370704775640040014B1870704700BF83640040014B18780F
:4018C000704700BF63640040014B1880704700BF04680040024B1B78024B188880B270470264004084680040014B188880B2704784680040014B1880704700BF4468004096
:40190000014B1880704700BF6468004008B501E0FFF7EAFFFFF7D2FF10F0400FF8D108BD08B5134B1A7802F0F8021A701A7802F0FC021A70FFF7EAFF4FF40040FFF7DAFFC0
:401940004FF40040FFF7C0FF0020FFF7B1FFFFF7B5FF4FF40040FFF7D3FF00F005FF054A137843F01003137000F002FF08BD00BF756400409364004008B5054B1B7823B99C
:40198000FFF7CEFF0122024B1A70FFF789FF08BD9281FF1F01BE704710B5044605E0084B186800F0D9FEA4F50044B4F5004FF6D8034B586800FB04F000F0CEFE10BD00BF0A
:4019C000DC80FF1F08B5034B1B7A00FB03F000F0C3FE08BDDC80FF1F70B504460E46074B1D681F2802D90020FFF7D4FF04F01F04103455F8240045F8246070BD08ED00E0BB
:401A000038B504460D46072902D90020FFF7C2FF1F2C02D90020FFF7BDFF04F01F0000F1604000F564406D01EDB2057038BD00BF7222084B1A70202201331A700622A3F59E
:401A4000B2731A70472210331A70002251331A70704700BF8965004010B500F085FE04460A4A137843F0200313700132137843F010031370A2F20312137843F010031370EF
:401A800000F098F8204600F073FE10BD9965004008B5054B1B7823B9FFF7CAFF0122024B1A70FFF7D9FF08BD9381FF1F024A137843F080031370704779640040024A13781F
:401AC00003F07F031370704779640040014B1870704700BF88650040014B1878704700BF68650040014B1880704700BF106A0040024B1B78024B188880B2704708650040CD
:401B0000906A0040014B188880B27047906A0040014B1880704700BF506A0040014B1880704700BF706A004008B501E0FFF7EAFFFFF7D2FF10F0400FF8D108BD08B5144A58
:401B4000137803F0F80343F001031370137803F0FC0343F008031370FFF7E6FF4FF6FE70FFF7D6FF0020FFF7BDFF1020FFF7AEFFFFF7B2FF8020FFF7D1FF00F0F5FD054AB8
:401B8000137843F01003137000F0F2FD08BD00BF796400409865004008B5054B1B7823B9FFF7CCFF0122024B1A70FFF77FFF08BD9581FF1F054A137843F02003137010327B
:401BC000137843F020031370704700BFA2430040024A137843F08003137070477E640040014B1870704700BF8E640040014B1878704700BF6E640040014B1880704700BFC3
:401C000058680040014B188880B2704798680040014B1880704700BF18680040024B1B78024B188880B270470C6400409868004000F00300044B1A7802F0FC021A701A78EF
:401C400010431870704700BF7E64004008B501E0FFF7D8FFFFF7CAFF10F0080FF8D108BD08B54FF6FF70FFF7C7FF4FF6FF70FFF7CFFF00F079FD084A137843F01003137071
:401C800000F076FD0020FFF7D3FFFFF7DFFF0220FFF7A6FF08BD00BF9E64004008B5054B1B7823B9FFF7DCFF0122024B1A70FFF78FFF08BD9681FF1F014B1B6818657047BA
:401CC00008ED00E04001C0B2014B1870704700BF04E400E01022014B1A60704700E100E01022014B1A60704780E100E010B50446FFF7F6FF2046FFF7DFFF0720FFF7E2FFB8
:401D0000FFF7E8FF10BD00BF024A137843F080031370704774650040014B1870704700BF87650040014B1878704700BF67650040014B1880704700BF4C6A0040014B18884A
:401D400080B270478C6A0040014B1880704700BF0C6A0040024B1B78024B188880B27047066500408C6A004000F00300044B1A7802F0FC021A701A7810431870704700BF6C
:401D80007465004008B501E0FFF7D8FFFFF7CAFF10F0080FF8D108BD08B54FF6FF70FFF7C7FF4FF6FF70FFF7CFFF00F0DDFC084A137843F01003137000F0DAFC0020FFF74B
:401DC000D3FFFFF7DFFF0220FFF7A6FF08BD00BF9765004008B5054B1B7823B9FFF7DCFF0122024B1A70FFF78FFF08BD9781FF1F024B1878C0F38000704700BFF1510040F2
:401E0000044A137803F0F703C00000F00800184310707047F0510040014B1B685865704708ED00E04001C0B2014B1870704700BF05E400E02022014B1A60704700E100E0B3
:401E40002022014B1A60704780E100E010B50446FFF7F6FF2046FFF7DFFF0720FFF7E2FFFFF7E8FF10BD00BF024A137843F08003137070477D640040014B1870704700BF95
:401E80008A640040014B1878704700BF6A640040014B1880704700BF50680040014B188880B2704790680040014B1880704700BF10680040024B1B78024B188880B270476D
:401EC000086400409068004000F00300044B1A7802F0FC021A701A7810431870704700BF7D64004008B501E0FFF7D8FFFFF7CAFF10F0080FF8D108BD08B54FF6FF70FFF776
:401F0000C7FF4FF6FF70FFF7CFFF00F02DFC084A137843F01003137000F02AFC0020FFF7D3FFFFF7DFFF0220FFF7A6FF08BD00BF9A64004008B5054B1B7823B9FFF7DCFF06
:401F40000122024B1A70FFF78FFF08BD9881FF1F044A137803F0FD03400000F00200184310707047F0510040024B187800F00100704700BFF1510040024B187800F0010042
:401F8000704700BF21510040014B1B68D865704708ED00E04001C0B2014B1870704700BF07E400E08022014B1A60704700E100E08022014B1A60704780E100E010B504464A
:401FC000FFF7F6FF2046FFF7DFFF0720FFF7E2FFFFF7E8FF10BD00BF8022014B1A60704780E200E0024A137843F08003137070477B640040014B1870704700BF8B64004095
:40200000014B1878704700BF6B640040014B1880704700BF54680040014B188880B2704794680040014B1880704700BF14680040024B1B78024B188880B270470A6400405E
:402040009468004000F00300044B1A7802F0FC021A701A7810431870704700BF7B64004008B501E0FFF7D8FFFFF7CAFF10F0080FF8D108BD08B54FF6FF70FFF7C7FF4FF693
:40208000FF70FFF7CFFF00F06FFB084A137843F01003137000F06CFB0020FFF7D3FFFFF7DFFF0220FFF7A6FF08BD00BF9B64004008B5054B1B7823B9FFF7DCFF0122024B9D
:4020C0001A70FFF78FFF08BD9981FF1F024B1878C0F34010704700BF11510040044A137803F0EF03000100F0100018431070704710510040024A137843F080031370704724
:4021000075650040014B1880704700BF086A0040014B1880704700BF886A0040014B1880704700BF486A0040014B1880704700BF686A0040014B1870704700BF85650040C1
:40214000014B1878704700BF65650040014B188880B27047A86A004008B501E0FFF7F6FFFFF7EEFF10F0100FF8D108BD10B5154A137803F0C00343F0090313701F321378C0
:4021800043F001031370104C237843F0010323706420FFF7B7FF6420FFF7BAFF0020FFF7BDFF0020FFF7C0FF0020FFF7C3FF00F0DBFA237843F01003237000F0D9FAFFF7D0
:4021C000CBFF10BD756500409565004008B5054B1B7823B9FFF7CAFF0122024B1A70FFF789FF08BD9A81FF1F084A137843F0010313701032137843F00103137002F64D32AE
:40220000137843F001031370704700BFA3430040014B1880704700BF044F0040014B1880704700BF064F0040014B1870704700BF034F004008B5194A137843F0020313709F
:402240000232137803F08F0343F010031370144B1A7802F0CF021A701A7842F030021A701A7802F0F0021A701A7842F00F021A7044F62060FFF7CCFF0020FFF7CFFF0020B5
:40228000FFF7D2FF074A137843F00103137002F65E32137843F00103137008BD004F00400B4F0040A343004008B5054B1B7823B9FFF7C0FF0122024B1A70FFF795FF08BD66
:4022C0009B81FF1F024A137843F080031370704771640040014B1880704700BF08680040014B1880704700BF88680040014B1880704700BF48680040014B1880704700BF90
:4023000068680040014B1870704700BF81640040014B1878704700BF61640040014B188880B27047A868004008B501E0FFF7F6FFFFF7EEFF10F0100FF8D108BD08B5174A6B
:40234000137803F0C00343F0090313702332137843F0010313700132137843F00103137044F62060FFF7B6FF44F62060FFF7B8FF0020FFF7BBFF0020FFF7BEFF0020FFF7C3
:40238000C1FF00F0F1F9064A137843F01003137000F0EEF9FFF7C8FF08BD00BF716400409164004008B5054B1B7823B9FFF7C6FF0122024B1A70FFF785FF08BD9C81FF1FD2
:4023C000024B187800F00100704700BF3151004038B50222114B1A7081220E3B1A70082202331A700F2511331D70002401331C704FF400420A4B1A6007212846FFF700FBBD
:4024000008492846FFF7E8FA1022074B1A70074B1C70074B1C70074B1C7038BDD649004080E100E085240000C881FF1FCE81FF1FD681FF1FCC81FF1F08B500F095F9064AE0
:40244000137843F0040313701032137843F00403137000F08DF908BDA543004008B5074B1B7823B9FFF7B4FF0122044B1A70FFF7E3FF4FF40042024B1A6008BD9D81FF1FDF
:4024800000E100E038B5A54B1C78A54B1B7813F0400F00F03A81E4B214F0010F00F01D819F4B1B78453B052B00F21481DFE813F006008200120112010600DF0004F0DF0549
:4024C00004F00A04082C42D1954B1B78DBB2452B35D1944B1B7813F0FF0F10D0924B1B681B78DBB2914A137004228C4B1A7001228F4B1A7046228A4B1A702C46EDE08D4BF0
:402500001B7813F0020F0DD08B4A137843F00A0313706022824B1A704FF40042874B1A602C46DAE0864A137843F0100313701022844B1A700422023B1A702C46CDE0002241
:40254000764B1A704A22764B1A702C46C5E00A2C2BD1794A137843F0A0031370754B1B7813F0020F14D06E4B1B7813F0080F01D0092300E00A23704A11780B431370602218
:40258000674B1A704FF400426C4B1A602C46A4E06B4A137843F0100313701022694B1A700422023B1A702C4697E00020FFF7F2F92C4692E014F0020F36D15D4B1A78D2B225
:4025C000584B1B78DBB29A4210D2594A1378DBB255490968CB5CDBB254490B7004214F4B197013780133DBB2137076E0514B1B7813F0020F0CD0504A137843F00A03137050
:402600006022474B1A704FF400424C4B1A6064E04B4A137843F0100313701022494B1A700422023B1A7058E0424B1B7813F0020F0CD0414A137843F09A0313706022384B46
:402640001A704FF400423D4B1A6046E03C4A137843F01003137010223A4B1A700422023B1A70354A137843F09003137035E0364A1378DBB2354908682C490978C9B2C154A7
:4026800013780133DBB213701278D2B2304B1B78DBB29A4203D21022204B1A701DE0254B1B7813F0020F0CD0234A137843F00903137060221A4B1A704FF400421F4B1A6046
:4026C0000BE01F4A137843F0100313700022134B1A7002E00020FFF75DF914F0200F1CD00F4B1B7813F0080F01D0012300E00223114A11780B431370114A137803F0EF033A
:4027000013701022064B1A7038BD054B1B7813F0100F02D11022024B1A7038BDD7490040C881FF1FCD81FF1FD881FF1FD8490040CC81FF1FD481FF1FCE81FF1F80E100E0A7
:40274000D6490040D9490040D681FF1FD081FF1FD581FF1F000000000230800803D000BF01380046FCD17047EFF3108072B6704780F31088704700BF80F0004002E000BFCE
:4027800081F0004142001FBF5FEA410392EA030F7FEA226C7FEA236C6AD04FEA1262D2EB1363C1BFD218414048404140B8BF5B42192B88BF704710F0004F40F4000020F046
:4027C0007F4018BF404211F0004F41F4000121F07F4118BF494292EA030F3FD0A2F1010241FA03FC10EB0C00C3F1200301FA03F100F0004302D5494260EB4000B0F5000FFA
:4028000013D3B0F1807F06D340084FEA310102F10102FE2A51D2B1F1004F40EBC25008BF20F0010040EA03007047490040EB000010F4000FA2F10102EDD1B0FA80FCACF1BD
:40284000080CB2EB0C0200FA0CF0AABF00EBC25052421843BCBFD0401843704792F0000F81F4000106BF80F400000132013BB5E74FEA41037FEA226C18BF7FEA236C21D032
:4028800092EA030F04D092F0000F08BF0846704790EA010F1CBF0020704712F07F4F04D1400028BF40F00040704712F100723CBF00F50000704700F0004343F0FE4040F436
:4028C000000070477FEA226216BF08467FEA23630146420206BF5FEA412390EA010F40F4800070474FF0000304E000BF10F0004348BF40425FEA000C08BF704743F09643A0
:4029000001464FF000001CE050EA010208BF70474FF000030AE000BF50EA010208BF704711F0004302D5404261EB41015FEA010C02BF84460146002043F0B64308BFA3F1BA
:402940008053A3F50003BCFA8CF2083AA3EBC25310DB01FA02FC634400FA02FCC2F12002BCF1004F20FA02F243EB020008BF20F00100704702F1200201FA02FCC2F12002CC
:4029800050EA4C0021FA02F243EB020008BF20EADC7070474FF0FF3C06E000BF4FF0010C02E000BF4FF0010C4DF804CD4FEA40024FEA41037FEA226C18BF7FEA236C11D071
:4029C00001B052EA530C18BF90EA010F58BFB2EB030088BFC81738BF6FEAE17018BF40F0010070477FEA226C02D15FEA402C05D17FEA236CE4D15FEA412CE1D05DF8040B20
:402A0000704700BF844608466146FFE70FB5FFF7C9FF002848BF10F1000F0FBD4DF808EDFFF7F4FF0CBF012000205DF808FB00BF4DF808EDFFF7EAFF34BF012000205DF806
:402A400008FB00BF4DF808EDFFF7E0FF94BF012000205DF808FB00BF4DF808EDFFF7D2FF94BF012000205DF808FB00BF4DF808EDFFF7C8FF34BF012000205DF808FB00BFEC
:402A8000014B1868704700BF4C81FF1F0E4B70B51E460E4C0025E41AA410A54204D056F8253098470135F8E700F06EF8084B094C1E46E41AA4100025A54204D056F82530ED
:402AC00098470135F8E770BD942B0000942B0000942B00009C2B000010B5431E0A44914204D011F8014B03F8014FF8E710BD03460244934202D003F8011BFAE77047000065
:402B000000000000C84900401900004F00400C00405100403000000001408004000501408001000701408005000D01400001800E0140800100140140800200170140000563
:402B400000400140000A004C0140000200500140200000008004014090110048800080060140101200488000800C0140901200488000000E01401013004880008016014063
:402B80009013004880004300F8B500BFF8BC08BC9E4670474D00000011120000F8B500BFF8BC08BC9E46704729000000C02B0000C880FF1F88000000900000000000000067
:402BC000000000000F0000000F0000000F0000000F0000000000E02EC05D00001800000000366E0100000000000000000000000000000000000000000000000000000000B1
:402C000000000000862B00000000000000000000000000000000000000000000000000000000000000000000000000000000000000000000000000000000000000000000E3
:402C400000000000EC80FF1F0000000000000000000000000000000000000000000000000000000000000000000000000000000000000000000000000000000000000000CA
:402C80000000000000000000000000000000000000000000000000000000000000000000000000000000000000000000000000000000000000000000000000000000000014
:402CC00000000000000000000000000000000000000000000000000000000000000000000000000000000000000000000000000000000000000000000000000000000000D4
:402D00000000000000000000000000000000000000000000000000000000000000000000000000000000000000000000000000000000000000000000000000000000000093
:402D40000000000000000000000000000000000000000000000000000000000000000000000000000000000000000000000000000000000000000000000000000000000053
:020000040003F7
:0200000480007A
:4000000001450040024F0040075200400964004006650040540001403C0101406E02014052030140350401405205014037060140550701407D08014052090140750A01400F
:400040005A0B0140310C0140630D01402F0E01403D0F0140651401404D150140281601405C17014071180140551901406D1A0140521B0140074001400B4101400D4201407C
:400080000B430140024401400A45014006460140074701400E4801401F490140154C01400D4D01400850014003510140100201300A4B00400904110814011880600264431F
:4000C000800F810F836F850F870F8A0F8B0F8C6F8E0F850F870F887789728A388B0D010E03F0043406400A030C011004117F121014441610170119961A081B681C701DC5C4
:400100001F3A20442220267429FE2B012DA32E012F5C3074320C340135FF36023E103F104023410645C0460B470E481649FF4AFF4BFF4EF04F44500C5280540F5604580483
:4001400059045A045B045C015D155F0166C06A406B02830C86048E0E9102960299089E08A201A703B001B102B204B308B402B504B608B701BE10D280D407D804D904DB0438
:40018000DC33DD30DF0101800210030804400508080409200A030B400F2210A2168019901A801B081C401D061E081F802120261027A22A102B022D0830A032413308361004
:4001C000370238023F02422848044A804C014F40524458A15B085D015E085FA0620170027680840186108B80C0A7C2AFC41DCA4CCCAFCE81D006D204D6FFD801E2800F0CD9
:4002000010301108130414031819190D1C3024282C032E042F0330023101320133083438350236043704382A3E043F454023410549FF4AFF4BFF4DA04F01501858045904C1
:400240005A045C115D015F016040628064406540668068406A806C406D206E808101830285C1860F87028B078C948E608F10909E9167926095C0970499049C739D10A430AC
:40028000A6C9A708A8CFA9A7AA30ACFDAE02B1E0B2FFB310B50FB902BE04BF04C023C105C542C6C3C70EC81FC9FFCAFFCBFFCDAFCE07CF01D018D40FD804D904DA04DB046B
:4002C000DC10DD11DF05E040E280E440E540E680E840EA80EC40ED20EE80000402010A820C010E2A10241180158819041C801D081E081F8020042110220523082660276045
:4003000029042A102F013024320133803622380A39A03A013C8041084310450847104A124B024E025160520858205A085B42612062087A048420861088048A018B0292806E
:400340009402950196029A449C049D089E38A102A280A424A713A880AA01AC20AE01AF08B514C005C2F9C4A7CA16CCAFCE1FD066D218D60FD806DE04E408EA02EE09042CB4
:40038000061109010B020C800D010E030F0A1410180919021A101B011C1C1D011E221F062014244028302A0C301F3280330434603503370838203B203E044040410249FF81
:4003C0004AFF4BFF4DA04F045018580459045A045C155D035F01604062C06440654066C068C06AC06CC06EC0000803020504070809040A040B020C490D040E6A0F08100447
:4004000011041240152018201A041B021F202110226023142511260227192C082D022E402F203260344035043620370138803B103DA23F0841224404450246084D094F20CB
:40044000552057115E895F206501750281018C10940295099A449B209C019D089E289F12A102A2C4A424A603A711AD40AE10B404B640B708C065C2F7C44ECAF0CCFCCEFC32
:40048000D085D220D6F0D880E260EA02000C019E0201036004280530061107C908100AA00C100E20130F140B15731604181019FD1A601B021C0C1E02240729942A0F2B6098
:4004C0002DCF2F30304032303480360F37FF3A083F404002470449FF4A074BFF4C404D204EF04F055008580459045A045C015D055F01604061A86240632003020440050436
:40050000068007080A9A0D200E22115212241520170419081A821B201C401D241E031F082008218122102320254028102A202B042C102EC42F083008321036163704380864
:4005400039023A083B023E013F0440044188472048414A084D044F08520154085504599A80018201898091209204930494829504964097029A049D049E28A286A424A54466
:40058000A611AD04AE01AF02C0F1C2EFC46FCA36CCE6CEC3D02ED20CD60FE004E604E810EC08EE0602870302047F077808180A600B700C780E870F0510021128142816507D
:4005C00017181A781BC81C011E78202822502379241825332660278028042B052C072D7830803104327833F8360737033B083F0140314102420649FF4AFF4BFF4F01501816
:40060000580459045A045B045C445D045F016040624064406540668068806A806C806E80813C83C184028504860189E78B188D109001920694019602970499089C019D7C37
:400640009E0A9F82A1FFA610A918AFC3B008B198B204B320B403B558B610B71FBA20BB82BF04C031C102C206C5ECC720C823C9FFCAFFCBFFCD83CE03CF01D018D280D80403
:40068000D904DA04DB04DC51DD64DF01E040E240E440E540E680E880EA80EC80EE800320059806800AA10E56130415101602170519201AA11B201E621F40210122862308ED
:4006C0002401279028802A202B412D982F5830203288351037153880392A3C013E5640024108420844024508460949054B104C044F1052015C406D806F027340812083209A
:40070000888090089214932299809A889B059D259E019FB0A108A308A611AB01AC08AE20B180B220B421B501B608B710C0F4C2FDC4F4CAFDCCEECEFFD07ED224D610E02044
:40074000E810001401800228063C07E00B090D0A0E4111401202140C15201630170F19E31A3D1B101E411F1C200C22302307243C270F283F290F2BE02C142DE02E28300323
:4007800033E0343C3640371F3B803E4040534106420149FF4AFF4BFF4F01501854035604580459045A045B045C445D445F056040624064406540668068806A806C806E8018
:4007C000800782108303842F864096189A2F9D019E2FA204A401A602A802AA01B102B21FB440B501B620BA08BE40BF10C053C106C204C5ECC702C813C9FFCAFFCBFFCD8384
:40080000CE03CF01D018D283D403D604D804D904DA04DB04DC14DD44DF05E040E240E440E540E680E880EA80EC80EE800108020103800402062008800A6A0B100E16100417
:4008400011401290171519501A401B021E152108228426202740280829082A102B822C402E01310832813320374039443A013B103F0242014308444045044A0B4B204E0A7A
:400880004F055504570859555E205F85604067406F05768078047B307C207E088B408C4090089144922093029608988099089C089D209F20A381A501A680A820AE04B742FD
:4008C000C03DC2EFC47FCA0FCC1FCE8FD0CAD23CD6FFD881DE22E260E440E810EC40EE04030C0485061A08030AFC0B030C77110218BF19041A4024CC26232CCA2E15310135
:4009000032F03308340F3502370438023E013F5040534102420649FF4AFF4BFF4F015018540F580459045A045B045C115D125F056040624064406540668068806A806C80A4
:400940006E800148038005200722080809010A080E0410081104128015081740180819081A401B801C201E041F012101222023102642271828212B40326033043602371010
:4009800038043B013C023E20408041284240452849854B104C014D804F90510852045E925F0866086704680869406A207340780579027A207F108004816082188504874143
:4009C000881089048B1290029180928093059A289B049C259D059E049F12A001A201A608A702AB40AE82B184B602C0EDC24EC4AECA0BCCAECEA3D066D23CD6F0D860DE40DF
:400A0000E020E204E680E8508C0899039C039E0CA001A403A703AD02AF01B004B101B201B402B608B702B828BE44BF41C013C104C52CC630C74EC83BC9FFCAFFCBFFCDAFD2
:400A4000CE07CF01D018D804D904DA04DC01DD01DF01E040E280E440E540E680E840EA80EC40ED20EE8000040142030404420640082509800A200D400F021258134816203A
:400A80001702180219121C401D081E121F202184230926802740282129022B082F223180321033043710380639403A14421243034508460247014F065401562859956202AB
:400AC00069406A806B0473407A087B08C08FC28FC43FCA5FCC2ECE0FD0DBD60FD801DE040413060C09010B100E2013011413160417081A081C0A1E141F022003221426152F
:400B000027042A202B08302031103302340F350C361037013A203E413F104040410349FF4AFF4BFF4DA04F0450185283580459045A045B045C755D205F01604062C0644077
:400B4000654066C068C06AC06CC06EC0830C87038E0E99089D029E08A602AA04AE01B001B102B204B308B402B504B608B701BE10C040C103C5D0C620C751C83AC9FFCAFFEC
:400B8000CBFFCDAFCE0FCF04D018D280D407D804D904DA04DB04DF01E040E2C0E440E540E6C0E8C0EAC0ECC0EEC00080032004400A240B020F0210041104128016281740F4
:400BC000180819821B201C401E281F80200422412310266027A028283180320936603B103E083F02404042204301462047014F01562857015A805E085FA1680869406A1046
:400C00007340774083808610882089028A088D80910492249302940C954096109740982C9D80A040A280A428AC01B382C085C287C4EECA06CC3BCEC4D0C3D6F8E011E44855
:400C4000ECA0EE1A043006CF0B020CCC0E3214FB160418771CAC1E511F0128582AA1300F310232F0350140254106420349FF4AFF4BFF4F015018580459045A045C115D0227
:400C80005F016040624064406540668068806A806C806E80010202040316044005040A920B050E2A100112581340152019521B081C401E6021042224233424802708290239
:400CC0002A142B0A30093260378039403A483B113E20410443204504473049294A0A4E024F205202595963807B107D087F208008820283048C208D218E288F10912492A6A6
:400D00009302948C95409658980499049D809F08A040A285A320A421A501A630A742A910AA80AC04AD1AAE08B740C0AFC2EFC44FCA0FCC1FCE2FD066D23CD60FD801DE026D
:400D4000E030E206E440E604EA0AEE40013802030304050807020D3E1378180119101B032120230331063201333834023540360137013E443F4040614104420349FF4AFFA7
:400D80004BFF4DA04F015018528054175604580459045A045B045C665D665F056040628064406540668068406A506BA86C406D206E506FA8840185018606870488128A21B3
:400DC0008C088F08910894249611971899089B02A104A43FA83FAD07B008B110B230B308B407B506B701B980BF44C061C102C205C552C6ECC81FC9FFCAFFCBFFCDAFCE0739
:400E0000CF01D018D602D712D804D904DA04DB04DC65DD56DF01E040E280E440E540E680E840EA50EBA8EC40ED20EE50EFA800240140050208400A100B020E081114148091
:400E40001701180419141A101B051D481E0A2180221123102505262027112B822E0132113304350136203B483D8A400841804440458848404A114B104F10508053145A08CF
:400E80005E64640465406601672069547070722075017F028201830488CC8B048D108F049208934294C0952897049E209F20A160A282A342A420A608A701AD10AF08C0172B
:400EC000C244C406CA89CCA7CEDAD0DCD22CD672D8F0DE10E020E242000404020541072009040D080E03110F13D0158219C31A0C1D0C1FD321DF25D3270C290C2FC3300203
:400F000031C0320133203404350F3608371039803B203E114021410449FF4AFF4BFF4F0150185418580459045A045B045C565D565F016040624064406540668068806A80B3
:400F40006C806E808310850187028A049101930695019601970A99029A089B019C019E02A208B001B103B202B304B408B510B604B708BB02BE10C021C104C5ECC602C8076B
:400F8000C9FFCAFFCBFFCD83CE03CF01D018D401D604D804D904DA04DB04DC17DD66DF05E040E240E440E540E680E880EA80EC80EE8000800108038007080B080D200E12A6
:400FC00015201604170219081A441B801C441E12211022092302250627052A242B4131143282372538A039083D083E024180428143124580468047104F0555805A025C803E
:401000005F056004614065027F02881089468B208F0890A09308944095289645988099149A229B109D029F20A040A120A282A343A410A608A780AF01B202C04DC2E2C410D8
:40104000CA0FCCEFCECED0BDD6D1D88CDE10E081E448E6A0EE1232023310358138408902CCF0CE1030125D026302944099029D81AB10AE02CC50D6C0EA603C8058088180C6
:4010800088108C4094409C109D81A402A701CE20D640E2201B0194089D01A442A721A808AF20B404C610EC10EE207002DC0108080F805B4083409B40A402B740C20CD40158
:4010C000E80806808C02A402A808C004E40297109A809C08B310B408EA02EE01002003200418800284408A208C108E409408A442A720B501C0F0E2600180040809020E409D
:40110000122017045D0270087E01810283048C048D8092029640A008A502A620AE01B010B102B408C060C230C430D680DC80DE20E080E620EE4008480D100F10102013806F
:401140001480594079027D20878089118E8097109A809C08C20FC40ED401DE03E004E60C10808110854088809D40A510AC80B040B420C408E601EA01EE08007E082A0A2EFB
:401180000C720E1610E71AA71CE200FF01CF03C0000000700E70F0000000010300000080A3025C00FE1401207F400004C5143A2000000002000000089674680000040040F9
:4011C00000F00002FF0C000100000000000010044006000000D120502BFFFFFF00AF0F04180080000F00040004040404101300014000C0004040C000C000C000C000C0004D
:4012000000000000000000000000000000000000005C000300610016000000003D00800000003D000800040800613D0E000060001C0040000400081C020000230000100005
:40124000800F0260011A7C00000880A2000014043501060002C000E022FFFFFF62A0F0410C00000001000000040404045255000100000000000040020010301000101012EB
:401280000000000000000000000000000000000000046008001C3D4000000000000010001C0040003D08820400003D3D000000100400083D003D0202080004000000006072
:4012C000027C800101027C0000008002000010045302060000EC000213FFFFFF00830301180083000000000004040404244200014000400040408000800080008000800068
:40130000000000000000000000000000000000000200002F040000A03000C040500AA0005000A0000000F009F0000F0F3000C01C0100F0A0070F0000F763001000000F0784
:4013400008000080F060071F0000008000000004130400000000000000FFFFFF00A000011800830003000400040404042221000540008000404080004000800040208000DC
:40138000000000000000000000000000000000000000810700E379100020810F780A0400000078E0180060091800601C2800500F28405000008002007BE00000000F04E087
:4013C000040003E0781F800000000020000040003506020000EC002023FFFFFF008303011800000003000400040404042222000540004000404080008000800080008000A7
:401400000000000000000000000000000000000000FFFF00C0000000830040B0B300830000000000251A1A0000000000E01F1F000400000011EAEA0008000000070030871F
:40144000800080000000000000000000000000000000000000000000000000000000000000000000000000000000000000000000000000000000000000000000000000006C
:40148000000000000000000000000000000000000000000000000000000000000000000000000000000000000000000000000000000000000000000000000000000000002C
:4014C00000000000000000000000000000000000000000000000000000000000000000000000000000000000000000000000000000000000000000000000000000000000EC
:4015000000000000000000000000000000000000000000000000000000000000000000000000000000000000000000000000000000000000000000000000000000000000AB
:40154000000000000000000000000000000000000000000000000000000000000000000000000000000000000000000000000000000000000000000000000000000000006B
:0200000490006A
:0400000000004005B7
:0200000490105A
:04000000BC90ACAF55
:0200000490303A
:020000006C5D35
:0200000490402A
:4000000000000000000000000000000000000000000000000000000000000000000000000000000000000000000000000000000000000000000000000000000000000000C0
:400040000000000000000000000000000000000000000000000000000000000000000000000000000000000000000000000000000000000000000000000000000000000080
:400080000000000000000000000000000000000000000000000000000000000000000000000000000000000000000000000000000000000000000000000000000000000040
:4000C0000000000000000000000000000000000000000000000000000000000000000000000000000000000000000000000000000000000000000000000000000000000000
:0200000490501A
:0C00000000012E16106900012E2D7CC698
:00000001FF